:10015600759850438920758DFA758BFAD28ED2998F
:03016600D29C2206
:080175008F993099FDC2992217
:10000300E4F580F590F5A01201567F610200E3301C
:0A00130098FDC298AD99ED30E7F5B5
:10001D005460C4135407F508ED541C1313543FF5E5
:10002D0009ED30E1030200E95401FEE508146034E6
:10003D0014605714607A240360030200E1EE60122D
:10004D00AF09A8077401088002C333D8FC428002AF
:10005D0000E1AF09A8077401088002C333D8FCF48E
:10006D0052808070EE6011AF09A8077401088002FC
:10007D00C333D8FC4290805CAF09A8077401088097
:10008D0002C333D8FCF45290804AEE6011AF09A838
:10009D00077401088002C333D8FC42A08036AF0933
:1000AD00A8077401088002C333D8FCF452A0802441
:1000BD00EE6011AF09A8077401088002C333D8FCA4
:1000CD0042B08010AF09A8077401088002C333D86D
:1000DD00FCF452B07F73120175020012ED30E00393
:1000ED00020012E50814601C14602B14603A2403FE
:1000FD007046AF09A8077401088002C333D8FC55B8
:10010D0080FE8034AF09A8077401088002C333D87C
:10011D00FC5590FE8022AF09A8077401088002C328
:10012D0033D8FC55A0FE8010AF09A80774010880D4
:10013D0002C333D8FC55B0FEEE60047EFF8002E4AE
:06014D00FEAF0612017571
:0301530002001295
:0300000002016991
:0C016900787FE4F6D8FD758109020003E0
:00000001FF
